{
  "contractName": "TodoList",
  "abi": [
    {
      "anonymous": false,
      "inputs": [
        {
          "indexed": false,
          "internalType": "uint256",
          "name": "id",
          "type": "uint256"
        },
        {
          "indexed": false,
          "internalType": "bool",
          "name": "state",
          "type": "bool"
        }
      ],
      "name": "StateTask",
      "type": "event"
    },
    {
      "anonymous": false,
      "inputs": [
        {
          "indexed": false,
          "internalType": "uint256",
          "name": "id",
          "type": "uint256"
        },
        {
          "indexed": false,
          "internalType": "string",
          "name": "name",
          "type": "string"
        },
        {
          "indexed": false,
          "internalType": "bool",
          "name": "state",
          "type": "bool"
        }
      ],
      "name": "createdTask",
      "type": "event"
    },
    {
      "inputs": [
        {
          "internalType": "string",
          "name": "_name",
          "type": "string"
        }
      ],
      "name": "createTask",
      "outputs": [],
      "stateMutability": "nonpayable",
      "type": "function"
    },
    {
      "inputs": [
        {
          "internalType": "uint256",
          "name": "_id",
          "type": "uint256"
        }
      ],
      "name": "taskState",
      "outputs": [],
      "stateMutability": "nonpayable",
      "type": "function"
    },
    {
      "inputs": [
        {
          "internalType": "uint256",
          "name": "_id",
          "type": "uint256"
        },
        {
          "internalType": "string",
          "name": "_name",
          "type": "string"
        }
      ],
      "name": "updateTask",
      "outputs": [],
      "stateMutability": "nonpayable",
      "type": "function"
    },
    {
      "inputs": [
        {
          "internalType": "uint256",
          "name": "_id",
          "type": "uint256"
        }
      ],
      "name": "seeTask",
      "outputs": [
        {
          "components": [
            {
              "internalType": "uint256",
              "name": "id",
              "type": "uint256"
            },
            {
              "internalType": "string",
              "name": "name",
              "type": "string"
            },
            {
              "internalType": "bool",
              "name": "state",
              "type": "bool"
            }
          ],
          "internalType": "struct TodoList.Task",
          "name": "",
          "type": "tuple"
        }
      ],
      "stateMutability": "view",
      "type": "function"
    },
    {
      "inputs": [],
      "name": "allTask",
      "outputs": [
        {
          "internalType": "string[]",
          "name": "",
          "type": "string[]"
        }
      ],
      "stateMutability": "view",
      "type": "function"
    }
  ],
  "bytecode": "0x608060405234801561001057600080fd5b50611105806100206000396000f3fe608060405234801561001057600080fd5b50600436106100575760003560e01c8063111002aa1461005c57806326c6bee1146100785780635183ac741461009457806386533f6c146100c4578063997c21a5146100e0575b600080fd5b61007660048036038101906100719190610a12565b6100fe565b005b610092600480360381019061008d9190610a91565b61037d565b005b6100ae60048036038101906100a99190610a91565b610518565b6040516100bb9190610bc0565b60405180910390f35b6100de60048036038101906100d99190610be2565b61060a565b005b6100e861067a565b6040516100f59190610d00565b60405180910390f35b6002600081548092919061011190610d51565b919050555060005b6000805490508110156101ec576000818154811061013a57610139610d9a565b5b906000526020600020906003020160010160405160200161015b9190610ec9565b60405160208183030381529060405280519060200120826040516020016101829190610f11565b6040516020818303038152906040528051906020012014156101d9576040517f08c379a00000000000000000000000000000000000000000000000000000000081526004016101d090610f85565b60405180910390fd5b80806101e490610d51565b915050610119565b5060006040518060600160405280600254815260200183815260200160001515815250908060018154018082558091505060019003906000526020600020906003020160009091909190915060008201518160000155602082015181600101908051906020019061025e9291906107f2565b5060408201518160020160006101000a81548160ff021916908315150217905550505060405180606001604052806002548152602001828152602001600015158152506001600060025481526020019081526020016000206000820151816000015560208201518160010190805190602001906102dc9291906107f2565b5060408201518160020160006101000a81548160ff02191690831515021790555090505060038190806001815401808255809150506001900390600052602060002001600090919091909150908051906020019061033b9291906107f2565b507fa992d79b765148c7654317e5fb47f9c98b7d106a41ba3065e8d418636a21a1e560025482600060405161037293929190610ffc565b60405180910390a150565b600061038882610753565b9050600060016000838152602001908152602001600020604051806060016040529081600082015481526020016001820180546103c490610df8565b80601f01602080910402602001604051908101604052809291908181526020018280546103f090610df8565b801561043d5780601f106104125761010080835404028352916020019161043d565b820191906000526020600020905b81548152906001019060200180831161042057829003601f168201915b505050505081526020016002820160009054906101000a900460ff161515151581525050905080604001511581604001901515908115158152505080600160008481526020019081526020016000206000820151816000015560208201518160010190805190602001906104b29291906107f2565b5060408201518160020160006101000a81548160ff0219169083151502179055509050507fc033694f02b54d659ce4591e1930c18fdb8f6650ced877c74c3c9fd40d8702ee83826040015160405161050b92919061103a565b60405180910390a1505050565b610520610878565b600061052b83610753565b9050600160008281526020019081526020016000206040518060600160405290816000820154815260200160018201805461056590610df8565b80601f016020809104026020016040519081016040528092919081815260200182805461059190610df8565b80156105de5780601f106105b3576101008083540402835291602001916105de565b820191906000526020600020905b8154815290600101906020018083116105c157829003601f168201915b505050505081526020016002820160009054906101000a900460ff161515151581525050915050919050565b600061061583610753565b9050816001600083815260200190815260200160002060010190805190602001906106419291906107f2565b50816003828154811061065757610656610d9a565b5b9060005260206000200190805190602001906106749291906107f2565b50505050565b60606003805480602002602001604051908101604052809291908181526020016000905b8282101561074a5783829060005260206000200180546106bd90610df8565b80601f01602080910402602001604051908101604052809291908181526020018280546106e990610df8565b80156107365780601f1061070b57610100808354040283529160200191610736565b820191906000526020600020905b81548152906001019060200180831161071957829003601f168201915b50505050508152602001906001019061069e565b50505050905090565b600080600090505b6000805490508110156107b157826000828154811061077d5761077c610d9a565b5b906000526020600020906003020160000154141561079e57809150506107ed565b80806107a990610d51565b91505061075b565b506040517f08c379a00000000000000000000000000000000000000000000000000000000081526004016107e4906110af565b60405180910390fd5b919050565b8280546107fe90610df8565b90600052602060002090601f0160209004810192826108205760008555610867565b82601f1061083957805160ff1916838001178555610867565b82800160010185558215610867579182015b8281111561086657825182559160200191906001019061084b565b5b509050610874919061089b565b5090565b604051806060016040528060008152602001606081526020016000151581525090565b5b808211156108b457600081600090555060010161089c565b5090565b6000604051905090565b600080fd5b600080fd5b600080fd5b600080fd5b6000601f19601f8301169050919050565b7f4e487b7100000000000000000000000000000000000000000000000000000000600052604160045260246000fd5b61091f826108d6565b810181811067ffffffffffffffff8211171561093e5761093d6108e7565b5b80604052505050565b60006109516108b8565b905061095d8282610916565b919050565b600067ffffffffffffffff82111561097d5761097c6108e7565b5b610986826108d6565b9050602081019050919050565b82818337600083830152505050565b60006109b56109b084610962565b610947565b9050828152602081018484840111156109d1576109d06108d1565b5b6109dc848285610993565b509392505050565b600082601f8301126109f9576109f86108cc565b5b8135610a098482602086016109a2565b91505092915050565b600060208284031215610a2857610a276108c2565b5b600082013567ffffffffffffffff811115610a4657610a456108c7565b5b610a52848285016109e4565b91505092915050565b6000819050919050565b610a6e81610a5b565b8114610a7957600080fd5b50565b600081359050610a8b81610a65565b92915050565b600060208284031215610aa757610aa66108c2565b5b6000610ab584828501610a7c565b91505092915050565b610ac781610a5b565b82525050565b600081519050919050565b600082825260208201905092915050565b60005b83811015610b07578082015181840152602081019050610aec565b83811115610b16576000848401525b50505050565b6000610b2782610acd565b610b318185610ad8565b9350610b41818560208601610ae9565b610b4a816108d6565b840191505092915050565b60008115159050919050565b610b6a81610b55565b82525050565b6000606083016000830151610b886000860182610abe565b5060208301518482036020860152610ba08282610b1c565b9150506040830151610bb56040860182610b61565b508091505092915050565b60006020820190508181036000830152610bda8184610b70565b905092915050565b60008060408385031215610bf957610bf86108c2565b5b6000610c0785828601610a7c565b925050602083013567ffffffffffffffff811115610c2857610c276108c7565b5b610c34858286016109e4565b9150509250929050565b600081519050919050565b600082825260208201905092915050565b6000819050602082019050919050565b6000610c768383610b1c565b905092915050565b6000602082019050919050565b6000610c9682610c3e565b610ca08185610c49565b935083602082028501610cb285610c5a565b8060005b85811015610cee5784840389528151610ccf8582610c6a565b9450610cda83610c7e565b925060208a01995050600181019050610cb6565b50829750879550505050505092915050565b60006020820190508181036000830152610d1a8184610c8b565b905092915050565b7f4e487b7100000000000000000000000000000000000000000000000000000000600052601160045260246000fd5b6000610d5c82610a5b565b91507fffffffffffffffffffffffffffffffffffffffffffffffffffffffffffffffff821415610d8f57610d8e610d22565b5b600182019050919050565b7f4e487b7100000000000000000000000000000000000000000000000000000000600052603260045260246000fd5b7f4e487b7100000000000000000000000000000000000000000000000000000000600052602260045260246000fd5b60006002820490506001821680610e1057607f821691505b60208210811415610e2457610e23610dc9565b5b50919050565b600081905092915050565b60008190508160005260206000209050919050565b60008154610e5781610df8565b610e618186610e2a565b94506001821660008114610e7c5760018114610e8d57610ec0565b60ff19831686528186019350610ec0565b610e9685610e35565b60005b83811015610eb857815481890152600182019150602081019050610e99565b838801955050505b50505092915050565b6000610ed58284610e4a565b915081905092915050565b6000610eeb82610acd565b610ef58185610e2a565b9350610f05818560208601610ae9565b80840191505092915050565b6000610f1d8284610ee0565b915081905092915050565b600082825260208201905092915050565b7f5461736b20616c72656164792065786973742e00000000000000000000000000600082015250565b6000610f6f601383610f28565b9150610f7a82610f39565b602082019050919050565b60006020820190508181036000830152610f9e81610f62565b9050919050565b610fae81610a5b565b82525050565b6000610fbf82610acd565b610fc98185610f28565b9350610fd9818560208601610ae9565b610fe2816108d6565b840191505092915050565b610ff681610b55565b82525050565b60006060820190506110116000830186610fa5565b81810360208301526110238185610fb4565b90506110326040830184610fed565b949350505050565b600060408201905061104f6000830185610fa5565b61105c6020830184610fed565b9392505050565b7f5461736b20646f73276e742065786973742e0000000000000000000000000000600082015250565b6000611099601283610f28565b91506110a482611063565b602082019050919050565b600060208201905081810360008301526110c88161108c565b905091905056fea2646970667358221220f5f729c7e941b2d9f2668767aa1ebf6131ec9157804804787d0ae5917fc6108b64736f6c634300080b0033",
  "immutableReferences": {},
  "source": "//SPDX-License-Identifier:MIT\r\n\r\npragma solidity ^0.8.11;\r\npragma experimental  ABIEncoderV2;\r\n/**\r\n  PROGRAMA PARA REALIZAR UNA LISTA DE TAREAS\r\n */\r\ncontract TodoList{\r\n\r\n struct Task{\r\n    uint id;\r\n    string name;\r\n    bool state;\r\n }\r\n //declaramos una lista de tareas\r\n Task[] tasklist;\r\n\r\n //mapping que relaciona el id de la tarea con la tarea\r\n mapping(uint => Task) tasks;\r\n\r\n //declaramos una variable que sera el nuevo id\r\n uint newId;\r\n\r\n //eventos para saber cuando se creo una tarea y cuando se le cambio el estado\r\n event createdTask(uint id, string name, bool state);\r\n event StateTask(uint id, bool state); \r\n // lista para mostrar las tareas\r\n string[] listtask;\r\n\r\n //@ funcion para manipular las listas de tareas buscar tareas\r\n function Search(uint _valor) internal view returns(uint){\r\n    for(uint i = 0; i < tasklist.length; i++){\r\n        if(tasklist[i].id == _valor)\r\n        return i;\r\n    }\r\n    revert(\"Task dos'nt exist.\");\r\n }\r\n\r\n //@ funcion para crear las tareas\r\n function createTask(string memory _name) public{\r\n    newId++; //incrementamos el valor del id cada vez que se llame a esta funcion\r\n    for(uint i = 0; i < tasklist.length; i++){\r\n        require(keccak256(abi.encodePacked(_name)) != keccak256(abi.encodePacked(tasklist[i].name)),\"Task already exist.\");\r\n    }\r\n    tasklist.push(Task(newId,_name,false));\r\n    tasks[newId] = Task(newId,_name,false);\r\n    listtask.push(_name);\r\n    //emitimos el evento de tarea creada\r\n    emit createdTask(newId, _name, false);\r\n }\r\n\r\n //@funcion para dar de alta a una tarea\r\n function taskState(uint _id) public{\r\n    uint i = Search(_id); //comprobamos si la tarea existe \r\n    Task memory _tasks = tasks[i];\r\n    _tasks.state = !_tasks.state;\r\n    tasks[i] = _tasks;\r\n    //emitimos que la tarea cambio de estado\r\n    emit StateTask(_id, _tasks.state);\r\n }\r\n\r\n //@funcion para actualizar una tarea(cambiar el nombre de la tarea)\r\n function updateTask(uint _id, string memory _name) public {\r\n    uint i = Search(_id);\r\n    tasks[i].name = _name;\r\n    listtask[i] = _name;\r\n }\r\n\r\n //@funcion para ver la tarea y su estado\r\n function seeTask(uint _id) public view returns(Task memory){\r\n    uint i = Search(_id);\r\n    return tasks[i];\r\n }\r\n\r\n //@funcio que me regresa el listado de tareas\r\n function allTask() public view returns(string[] memory){\r\n    return listtask;\r\n }\r\n\r\n}",
  "sourcePath": "D:\\cursoSolidity\\myProyects\\TodoList\\contracts\\TodoList.sol",
  "compiler": {
    "name": "solc",
    "version": "0.8.11+commit.d7f03943.Emscripten.clang"
  },
  "schemaVersion": "3.4.4",
  "updatedAt": "2022-08-24T19:43:49.900Z",
  "devdoc": {
    "kind": "dev",
    "methods": {},
    "version": 1
  },
  "userdoc": {
    "kind": "user",
    "methods": {},
    "notice": "PROGRAMA PARA REALIZAR UNA LISTA DE TAREAS",
    "version": 1
  }
}